{
  "_format": "hh-sol-artifact-1",
  "contractName": "MyToken_Modified",
  "sourceName": "contracts/MyToken_Modified.sol",
  "abi": [
    {
      "inputs": [
        {
          "internalType": "uint256",
          "name": "initialSupply",
          "type": "uint256"
        }
      ],
      "stateMutability": "nonpayable",
      "type": "constructor"
    },
    {
      "inputs": [
        {
          "internalType": "address",
          "name": "spender",
          "type": "address"
        },
        {
          "internalType": "uint256",
          "name": "allowance",
          "type": "uint256"
        },
        {
          "internalType": "uint256",
          "name": "needed",
          "type": "uint256"
        }
      ],
      "name": "ERC20InsufficientAllowance",
      "type": "error"
    },
    {
      "inputs": [
        {
          "internalType": "address",
          "name": "sender",
          "type": "address"
        },
        {
          "internalType": "uint256",
          "name": "balance",
          "type": "uint256"
        },
        {
          "internalType": "uint256",
          "name": "needed",
          "type": "uint256"
        }
      ],
      "name": "ERC20InsufficientBalance",
      "type": "error"
    },
    {
      "inputs": [
        {
          "internalType": "address",
          "name": "approver",
          "type": "address"
        }
      ],
      "name": "ERC20InvalidApprover",
      "type": "error"
    },
    {
      "inputs": [
        {
          "internalType": "address",
          "name": "receiver",
          "type": "address"
        }
      ],
      "name": "ERC20InvalidReceiver",
      "type": "error"
    },
    {
      "inputs": [
        {
          "internalType": "address",
          "name": "sender",
          "type": "address"
        }
      ],
      "name": "ERC20InvalidSender",
      "type": "error"
    },
    {
      "inputs": [
        {
          "internalType": "address",
          "name": "spender",
          "type": "address"
        }
      ],
      "name": "ERC20InvalidSpender",
      "type": "error"
    },
    {
      "anonymous": false,
      "inputs": [
        {
          "indexed": true,
          "internalType": "address",
          "name": "owner",
          "type": "address"
        },
        {
          "indexed": true,
          "internalType": "address",
          "name": "spender",
          "type": "address"
        },
        {
          "indexed": false,
          "internalType": "uint256",
          "name": "value",
          "type": "uint256"
        }
      ],
      "name": "Approval",
      "type": "event"
    },
    {
      "anonymous": false,
      "inputs": [
        {
          "indexed": true,
          "internalType": "address",
          "name": "from",
          "type": "address"
        },
        {
          "indexed": true,
          "internalType": "address",
          "name": "to",
          "type": "address"
        },
        {
          "indexed": false,
          "internalType": "uint256",
          "name": "value",
          "type": "uint256"
        }
      ],
      "name": "Transfer",
      "type": "event"
    },
    {
      "inputs": [
        {
          "internalType": "address",
          "name": "owner",
          "type": "address"
        },
        {
          "internalType": "address",
          "name": "spender",
          "type": "address"
        }
      ],
      "name": "allowance",
      "outputs": [
        {
          "internalType": "uint256",
          "name": "",
          "type": "uint256"
        }
      ],
      "stateMutability": "view",
      "type": "function"
    },
    {
      "inputs": [
        {
          "internalType": "address",
          "name": "spender",
          "type": "address"
        },
        {
          "internalType": "uint256",
          "name": "value",
          "type": "uint256"
        }
      ],
      "name": "approve",
      "outputs": [
        {
          "internalType": "bool",
          "name": "",
          "type": "bool"
        }
      ],
      "stateMutability": "nonpayable",
      "type": "function"
    },
    {
      "inputs": [
        {
          "internalType": "address",
          "name": "account",
          "type": "address"
        }
      ],
      "name": "balanceOf",
      "outputs": [
        {
          "internalType": "uint256",
          "name": "",
          "type": "uint256"
        }
      ],
      "stateMutability": "view",
      "type": "function"
    },
    {
      "inputs": [],
      "name": "decimals",
      "outputs": [
        {
          "internalType": "uint8",
          "name": "",
          "type": "uint8"
        }
      ],
      "stateMutability": "view",
      "type": "function"
    },
    {
      "inputs": [],
      "name": "getLatestTransactionTimestamp",
      "outputs": [
        {
          "internalType": "string",
          "name": "",
          "type": "string"
        }
      ],
      "stateMutability": "view",
      "type": "function"
    },
    {
      "inputs": [
        {
          "internalType": "address",
          "name": "receiver",
          "type": "address"
        }
      ],
      "name": "getTransactionReceiver",
      "outputs": [
        {
          "internalType": "address",
          "name": "",
          "type": "address"
        }
      ],
      "stateMutability": "pure",
      "type": "function"
    },
    {
      "inputs": [],
      "name": "getTransactionSender",
      "outputs": [
        {
          "internalType": "address",
          "name": "",
          "type": "address"
        }
      ],
      "stateMutability": "view",
      "type": "function"
    },
    {
      "inputs": [],
      "name": "name",
      "outputs": [
        {
          "internalType": "string",
          "name": "",
          "type": "string"
        }
      ],
      "stateMutability": "view",
      "type": "function"
    },
    {
      "inputs": [],
      "name": "symbol",
      "outputs": [
        {
          "internalType": "string",
          "name": "",
          "type": "string"
        }
      ],
      "stateMutability": "view",
      "type": "function"
    },
    {
      "inputs": [],
      "name": "totalSupply",
      "outputs": [
        {
          "internalType": "uint256",
          "name": "",
          "type": "uint256"
        }
      ],
      "stateMutability": "view",
      "type": "function"
    },
    {
      "inputs": [
        {
          "internalType": "address",
          "name": "to",
          "type": "address"
        },
        {
          "internalType": "uint256",
          "name": "value",
          "type": "uint256"
        }
      ],
      "name": "transfer",
      "outputs": [
        {
          "internalType": "bool",
          "name": "",
          "type": "bool"
        }
      ],
      "stateMutability": "nonpayable",
      "type": "function"
    },
    {
      "inputs": [
        {
          "internalType": "address",
          "name": "from",
          "type": "address"
        },
        {
          "internalType": "address",
          "name": "to",
          "type": "address"
        },
        {
          "internalType": "uint256",
          "name": "value",
          "type": "uint256"
        }
      ],
      "name": "transferFrom",
      "outputs": [
        {
          "internalType": "bool",
          "name": "",
          "type": "bool"
        }
      ],
      "stateMutability": "nonpayable",
      "type": "function"
    }
  ],
  "bytecode": "0x608060405234801561001057600080fd5b50604051611cf0380380611cf0833981810160405281019061003291906103eb565b6040518060400160405280600d81526020017f417374616e6149545f32333234000000000000000000000000000000000000008152506040518060400160405280600381526020017f4d544b000000000000000000000000000000000000000000000000000000000081525081600390816100ad919061065e565b5080600490816100bd919061065e565b5050506100f4336100d26100fa60201b60201c565b600a6100de919061089f565b836100e991906108ea565b61010360201b60201c565b50610a1d565b60006012905090565b600073ffffffffffffffffffffffffffffffffffffffff168273ffffffffffffffffffffffffffffffffffffffff16036101755760006040517fec442f0500000000000000000000000000000000000000000000000000000000815260040161016c919061096d565b60405180910390fd5b6101876000838361018b60201b60201c565b5050565b600073ffffffffffffffffffffffffffffffffffffffff168373ffffffffffffffffffffffffffffffffffffffff16036101dd5780600260008282546101d19190610988565b925050819055506102b0565b60008060008573ffffffffffffffffffffffffffffffffffffffff1673ffffffffffffffffffffffffffffffffffffffff16815260200190815260200160002054905081811015610269578381836040517fe450d38c000000000000000000000000000000000000000000000000000000008152600401610260939291906109cb565b60405180910390fd5b8181036000808673ffffffffffffffffffffffffffffffffffffffff1673ffffffffffffffffffffffffffffffffffffffff16815260200190815260200160002081905550505b600073ffffffffffffffffffffffffffffffffffffffff168273ffffffffffffffffffffffffffffffffffffffff16036102f95780600260008282540392505081905550610346565b806000808473ffffffffffffffffffffffffffffffffffffffff1673ffffffffffffffffffffffffffffffffffffffff168152602001908152602001600020600082825401925050819055505b8173ffffffffffffffffffffffffffffffffffffffff168373ffffffffffffffffffffffffffffffffffffffff167fddf252ad1be2c89b69c2b068fc378daa952ba7f163c4a11628f55a4df523b3ef836040516103a39190610a02565b60405180910390a3505050565b600080fd5b6000819050919050565b6103c8816103b5565b81146103d357600080fd5b50565b6000815190506103e5816103bf565b92915050565b600060208284031215610401576104006103b0565b5b600061040f848285016103d6565b91505092915050565b600081519050919050565b7f4e487b7100000000000000000000000000000000000000000000000000000000600052604160045260246000fd5b7f4e487b7100000000000000000000000000000000000000000000000000000000600052602260045260246000fd5b6000600282049050600182168061049957607f821691505b6020821081036104ac576104ab610452565b5b50919050565b60008190508160005260206000209050919050565b60006020601f8301049050919050565b600082821b905092915050565b6000600883026105147fffffffffffffffffffffffffffffffffffffffffffffffffffffffffffffffff826104d7565b61051e86836104d7565b95508019841693508086168417925050509392505050565b6000819050919050565b600061055b610556610551846103b5565b610536565b6103b5565b9050919050565b6000819050919050565b61057583610540565b61058961058182610562565b8484546104e4565b825550505050565b600090565b61059e610591565b6105a981848461056c565b505050565b5b818110156105cd576105c2600082610596565b6001810190506105af565b5050565b601f821115610612576105e3816104b2565b6105ec846104c7565b810160208510156105fb578190505b61060f610607856104c7565b8301826105ae565b50505b505050565b600082821c905092915050565b600061063560001984600802610617565b1980831691505092915050565b600061064e8383610624565b9150826002028217905092915050565b61066782610418565b67ffffffffffffffff8111156106805761067f610423565b5b61068a8254610481565b6106958282856105d1565b600060209050601f8311600181146106c857600084156106b6578287015190505b6106c08582610642565b865550610728565b601f1984166106d6866104b2565b60005b828110156106fe578489015182556001820191506020850194506020810190506106d9565b8683101561071b5784890151610717601f891682610624565b8355505b6001600288020188555050505b505050505050565b7f4e487b7100000000000000000000000000000000000000000000000000000000600052601160045260246000fd5b60008160011c9050919050565b6000808291508390505b60018511156107b65780860481111561079257610791610730565b5b60018516156107a15780820291505b80810290506107af8561075f565b9450610776565b94509492505050565b6000826107cf576001905061088b565b816107dd576000905061088b565b81600181146107f357600281146107fd5761082c565b600191505061088b565b60ff84111561080f5761080e610730565b5b8360020a91508482111561082657610825610730565b5b5061088b565b5060208310610133831016604e8410600b84101617156108615782820a90508381111561085c5761085b610730565b5b61088b565b61086e848484600161076c565b9250905081840481111561088557610884610730565b5b81810290505b9392505050565b600060ff82169050919050565b60006108aa826103b5565b91506108b583610892565b92506108e27fffffffffffffffffffffffffffffffffffffffffffffffffffffffffffffffff84846107bf565b905092915050565b60006108f5826103b5565b9150610900836103b5565b925082820261090e816103b5565b9150828204841483151761092557610924610730565b5b5092915050565b600073ffffffffffffffffffffffffffffffffffffffff82169050919050565b60006109578261092c565b9050919050565b6109678161094c565b82525050565b6000602082019050610982600083018461095e565b92915050565b6000610993826103b5565b915061099e836103b5565b92508282019050808211156109b6576109b5610730565b5b92915050565b6109c5816103b5565b82525050565b60006060820190506109e0600083018661095e565b6109ed60208301856109bc565b6109fa60408301846109bc565b949350505050565b6000602082019050610a1760008301846109bc565b92915050565b6112c480610a2c6000396000f3fe608060405234801561001057600080fd5b50600436106100b45760003560e01c806395d89b411161007157806395d89b41146101a3578063a9059cbb146101c1578063b0a9357e146101f1578063bead3f5014610221578063d45e3f4a1461023f578063dd62ed3e1461025d576100b4565b806306fdde03146100b9578063095ea7b3146100d757806318160ddd1461010757806323b872dd14610125578063313ce5671461015557806370a0823114610173575b600080fd5b6100c161028d565b6040516100ce9190610d03565b60405180910390f35b6100f160048036038101906100ec9190610dbe565b61031f565b6040516100fe9190610e19565b60405180910390f35b61010f610342565b60405161011c9190610e43565b60405180910390f35b61013f600480360381019061013a9190610e5e565b61034c565b60405161014c9190610e19565b60405180910390f35b61015d61037b565b60405161016a9190610ecd565b60405180910390f35b61018d60048036038101906101889190610ee8565b610384565b60405161019a9190610e43565b60405180910390f35b6101ab6103cc565b6040516101b89190610d03565b60405180910390f35b6101db60048036038101906101d69190610dbe565b61045e565b6040516101e89190610e19565b60405180910390f35b61020b60048036038101906102069190610ee8565b610481565b6040516102189190610f24565b60405180910390f35b61022961048b565b6040516102369190610f24565b60405180910390f35b610247610493565b6040516102549190610d03565b60405180910390f35b61027760048036038101906102729190610f3f565b6104a3565b6040516102849190610e43565b60405180910390f35b60606003805461029c90610fae565b80601f01602080910402602001604051908101604052809291908181526020018280546102c890610fae565b80156103155780601f106102ea57610100808354040283529160200191610315565b820191906000526020600020905b8154815290600101906020018083116102f857829003601f168201915b5050505050905090565b60008061032a61052a565b9050610337818585610532565b600191505092915050565b6000600254905090565b60008061035761052a565b9050610364858285610544565b61036f8585856105d9565b60019150509392505050565b60006012905090565b60008060008373ffffffffffffffffffffffffffffffffffffffff1673ffffffffffffffffffffffffffffffffffffffff168152602001908152602001600020549050919050565b6060600480546103db90610fae565b80601f016020809104026020016040519081016040528092919081815260200182805461040790610fae565b80156104545780601f1061042957610100808354040283529160200191610454565b820191906000526020600020905b81548152906001019060200180831161043757829003601f168201915b5050505050905090565b60008061046961052a565b90506104768185856105d9565b600191505092915050565b6000819050919050565b600033905090565b606061049e426106cd565b905090565b6000600160008473ffffffffffffffffffffffffffffffffffffffff1673ffffffffffffffffffffffffffffffffffffffff16815260200190815260200160002060008373ffffffffffffffffffffffffffffffffffffffff1673ffffffffffffffffffffffffffffffffffffffff16815260200190815260200160002054905092915050565b600033905090565b61053f8383836001610717565b505050565b600061055084846104a3565b90507fffffffffffffffffffffffffffffffffffffffffffffffffffffffffffffffff8110156105d357818110156105c3578281836040517ffb8f41b20000000000000000000000000000000000000000000000000000000081526004016105ba93929190610fdf565b60405180910390fd5b6105d284848484036000610717565b5b50505050565b600073ffffffffffffffffffffffffffffffffffffffff168373ffffffffffffffffffffffffffffffffffffffff160361064b5760006040517f96c6fd1e0000000000000000000000000000000000000000000000000000000081526004016106429190610f24565b60405180910390fd5b600073ffffffffffffffffffffffffffffffffffffffff168273ffffffffffffffffffffffffffffffffffffffff16036106bd5760006040517fec442f050000000000000000000000000000000000000000000000000000000081526004016106b49190610f24565b60405180910390fd5b6106c88383836108ee565b505050565b606060006201518083816106e4576106e3611016565b5b0490506106f081610b13565b60405160200161070091906110cd565b604051602081830303815290604052915050919050565b600073ffffffffffffffffffffffffffffffffffffffff168473ffffffffffffffffffffffffffffffffffffffff16036107895760006040517fe602df050000000000000000000000000000000000000000000000000000000081526004016107809190610f24565b60405180910390fd5b600073ffffffffffffffffffffffffffffffffffffffff168373ffffffffffffffffffffffffffffffffffffffff16036107fb5760006040517f94280d620000000000000000000000000000000000000000000000000000000081526004016107f29190610f24565b60405180910390fd5b81600160008673ffffffffffffffffffffffffffffffffffffffff1673ffffffffffffffffffffffffffffffffffffffff16815260200190815260200160002060008573ffffffffffffffffffffffffffffffffffffffff1673ffffffffffffffffffffffffffffffffffffffff1681526020019081526020016000208190555080156108e8578273ffffffffffffffffffffffffffffffffffffffff168473ffffffffffffffffffffffffffffffffffffffff167f8c5be1e5ebec7d5bd14f71427d1e84f3dd0314c0f7b2291e5b200ac8c7c3b925846040516108df9190610e43565b60405180910390a35b50505050565b600073ffffffffffffffffffffffffffffffffffffffff168373ffffffffffffffffffffffffffffffffffffffff1603610940578060026000828254610934919061111e565b92505081905550610a13565b60008060008573ffffffffffffffffffffffffffffffffffffffff1673ffffffffffffffffffffffffffffffffffffffff168152602001908152602001600020549050818110156109cc578381836040517fe450d38c0000000000000000000000000000000000000000000000000000000081526004016109c393929190610fdf565b60405180910390fd5b8181036000808673ffffffffffffffffffffffffffffffffffffffff1673ffffffffffffffffffffffffffffffffffffffff16815260200190815260200160002081905550505b600073ffffffffffffffffffffffffffffffffffffffff168273ffffffffffffffffffffffffffffffffffffffff1603610a5c5780600260008282540392505081905550610aa9565b806000808473ffffffffffffffffffffffffffffffffffffffff1673ffffffffffffffffffffffffffffffffffffffff168152602001908152602001600020600082825401925050819055505b8173ffffffffffffffffffffffffffffffffffffffff168373ffffffffffffffffffffffffffffffffffffffff167fddf252ad1be2c89b69c2b068fc378daa952ba7f163c4a11628f55a4df523b3ef83604051610b069190610e43565b60405180910390a3505050565b606060008203610b5a576040518060400160405280600181526020017f30000000000000000000000000000000000000000000000000000000000000008152509050610c6e565b600082905060005b60008214610b8c578080610b7590611152565b915050600a82610b85919061119a565b9150610b62565b60008167ffffffffffffffff811115610ba857610ba76111cb565b5b6040519080825280601f01601f191660200182016040528015610bda5781602001600182028036833780820191505090505b5090505b60008514610c6757600182610bf391906111fa565b9150600a85610c02919061122e565b6030610c0e919061111e565b60f81b818381518110610c2457610c2361125f565b5b60200101907effffffffffffffffffffffffffffffffffffffffffffffffffffffffffffff1916908160001a905350600a85610c60919061119a565b9450610bde565b8093505050505b919050565b600081519050919050565b600082825260208201905092915050565b60005b83811015610cad578082015181840152602081019050610c92565b60008484015250505050565b6000601f19601f8301169050919050565b6000610cd582610c73565b610cdf8185610c7e565b9350610cef818560208601610c8f565b610cf881610cb9565b840191505092915050565b60006020820190508181036000830152610d1d8184610cca565b905092915050565b600080fd5b600073ffffffffffffffffffffffffffffffffffffffff82169050919050565b6000610d5582610d2a565b9050919050565b610d6581610d4a565b8114610d7057600080fd5b50565b600081359050610d8281610d5c565b92915050565b6000819050919050565b610d9b81610d88565b8114610da657600080fd5b50565b600081359050610db881610d92565b92915050565b60008060408385031215610dd557610dd4610d25565b5b6000610de385828601610d73565b9250506020610df485828601610da9565b9150509250929050565b60008115159050919050565b610e1381610dfe565b82525050565b6000602082019050610e2e6000830184610e0a565b92915050565b610e3d81610d88565b82525050565b6000602082019050610e586000830184610e34565b92915050565b600080600060608486031215610e7757610e76610d25565b5b6000610e8586828701610d73565b9350506020610e9686828701610d73565b9250506040610ea786828701610da9565b9150509250925092565b600060ff82169050919050565b610ec781610eb1565b82525050565b6000602082019050610ee26000830184610ebe565b92915050565b600060208284031215610efe57610efd610d25565b5b6000610f0c84828501610d73565b91505092915050565b610f1e81610d4a565b82525050565b6000602082019050610f396000830184610f15565b92915050565b60008060408385031215610f5657610f55610d25565b5b6000610f6485828601610d73565b9250506020610f7585828601610d73565b9150509250929050565b7f4e487b7100000000000000000000000000000000000000000000000000000000600052602260045260246000fd5b60006002820490506001821680610fc657607f821691505b602082108103610fd957610fd8610f7f565b5b50919050565b6000606082019050610ff46000830186610f15565b6110016020830185610e34565b61100e6040830184610e34565b949350505050565b7f4e487b7100000000000000000000000000000000000000000000000000000000600052601260045260246000fd5b600081905092915050565b600061105b82610c73565b6110658185611045565b9350611075818560208601610c8f565b80840191505092915050565b7f20646179732073696e636520556e69782065706f636800000000000000000000600082015250565b60006110b7601683611045565b91506110c282611081565b601682019050919050565b60006110d98284611050565b91506110e4826110aa565b915081905092915050565b7f4e487b7100000000000000000000000000000000000000000000000000000000600052601160045260246000fd5b600061112982610d88565b915061113483610d88565b925082820190508082111561114c5761114b6110ef565b5b92915050565b600061115d82610d88565b91507fffffffffffffffffffffffffffffffffffffffffffffffffffffffffffffffff820361118f5761118e6110ef565b5b600182019050919050565b60006111a582610d88565b91506111b083610d88565b9250826111c0576111bf611016565b5b828204905092915050565b7f4e487b7100000000000000000000000000000000000000000000000000000000600052604160045260246000fd5b600061120582610d88565b915061121083610d88565b9250828203905081811115611228576112276110ef565b5b92915050565b600061123982610d88565b915061124483610d88565b92508261125457611253611016565b5b828206905092915050565b7f4e487b7100000000000000000000000000000000000000000000000000000000600052603260045260246000fdfea2646970667358221220410d3c3d7a6d0f9f07914f3738d9709334f5b774b9e68d24fece363a63e5331764736f6c634300081c0033",
  "linkReferences": {},
  "deployedLinkReferences": {}
}