{
  "_format": "hh-sol-artifact-1",
  "contractName": "MyToken",
  "sourceName": "contracts/MyToken.sol",
  "abi": [
    {
      "inputs": [],
      "stateMutability": "nonpayable",
      "type": "constructor"
    },
    {
      "inputs": [
        {
          "internalType": "address",
          "name": "spender",
          "type": "address"
        },
        {
          "internalType": "uint256",
          "name": "allowance",
          "type": "uint256"
        },
        {
          "internalType": "uint256",
          "name": "needed",
          "type": "uint256"
        }
      ],
      "name": "ERC20InsufficientAllowance",
      "type": "error"
    },
    {
      "inputs": [
        {
          "internalType": "address",
          "name": "sender",
          "type": "address"
        },
        {
          "internalType": "uint256",
          "name": "balance",
          "type": "uint256"
        },
        {
          "internalType": "uint256",
          "name": "needed",
          "type": "uint256"
        }
      ],
      "name": "ERC20InsufficientBalance",
      "type": "error"
    },
    {
      "inputs": [
        {
          "internalType": "address",
          "name": "approver",
          "type": "address"
        }
      ],
      "name": "ERC20InvalidApprover",
      "type": "error"
    },
    {
      "inputs": [
        {
          "internalType": "address",
          "name": "receiver",
          "type": "address"
        }
      ],
      "name": "ERC20InvalidReceiver",
      "type": "error"
    },
    {
      "inputs": [
        {
          "internalType": "address",
          "name": "sender",
          "type": "address"
        }
      ],
      "name": "ERC20InvalidSender",
      "type": "error"
    },
    {
      "inputs": [
        {
          "internalType": "address",
          "name": "spender",
          "type": "address"
        }
      ],
      "name": "ERC20InvalidSpender",
      "type": "error"
    },
    {
      "anonymous": false,
      "inputs": [
        {
          "indexed": true,
          "internalType": "address",
          "name": "owner",
          "type": "address"
        },
        {
          "indexed": true,
          "internalType": "address",
          "name": "spender",
          "type": "address"
        },
        {
          "indexed": false,
          "internalType": "uint256",
          "name": "value",
          "type": "uint256"
        }
      ],
      "name": "Approval",
      "type": "event"
    },
    {
      "anonymous": false,
      "inputs": [
        {
          "indexed": true,
          "internalType": "address",
          "name": "from",
          "type": "address"
        },
        {
          "indexed": true,
          "internalType": "address",
          "name": "to",
          "type": "address"
        },
        {
          "indexed": false,
          "internalType": "uint256",
          "name": "value",
          "type": "uint256"
        }
      ],
      "name": "Transfer",
      "type": "event"
    },
    {
      "inputs": [
        {
          "internalType": "address",
          "name": "owner",
          "type": "address"
        },
        {
          "internalType": "address",
          "name": "spender",
          "type": "address"
        }
      ],
      "name": "allowance",
      "outputs": [
        {
          "internalType": "uint256",
          "name": "",
          "type": "uint256"
        }
      ],
      "stateMutability": "view",
      "type": "function"
    },
    {
      "inputs": [
        {
          "internalType": "address",
          "name": "spender",
          "type": "address"
        },
        {
          "internalType": "uint256",
          "name": "value",
          "type": "uint256"
        }
      ],
      "name": "approve",
      "outputs": [
        {
          "internalType": "bool",
          "name": "",
          "type": "bool"
        }
      ],
      "stateMutability": "nonpayable",
      "type": "function"
    },
    {
      "inputs": [
        {
          "internalType": "address",
          "name": "account",
          "type": "address"
        }
      ],
      "name": "balanceOf",
      "outputs": [
        {
          "internalType": "uint256",
          "name": "",
          "type": "uint256"
        }
      ],
      "stateMutability": "view",
      "type": "function"
    },
    {
      "inputs": [],
      "name": "decimals",
      "outputs": [
        {
          "internalType": "uint8",
          "name": "",
          "type": "uint8"
        }
      ],
      "stateMutability": "view",
      "type": "function"
    },
    {
      "inputs": [],
      "name": "getLatestTransactionTimestamp",
      "outputs": [
        {
          "internalType": "string",
          "name": "",
          "type": "string"
        }
      ],
      "stateMutability": "view",
      "type": "function"
    },
    {
      "inputs": [
        {
          "internalType": "address",
          "name": "receiver",
          "type": "address"
        }
      ],
      "name": "getTransactionReceiver",
      "outputs": [
        {
          "internalType": "address",
          "name": "",
          "type": "address"
        }
      ],
      "stateMutability": "pure",
      "type": "function"
    },
    {
      "inputs": [],
      "name": "getTransactionSender",
      "outputs": [
        {
          "internalType": "address",
          "name": "",
          "type": "address"
        }
      ],
      "stateMutability": "view",
      "type": "function"
    },
    {
      "inputs": [],
      "name": "name",
      "outputs": [
        {
          "internalType": "string",
          "name": "",
          "type": "string"
        }
      ],
      "stateMutability": "view",
      "type": "function"
    },
    {
      "inputs": [],
      "name": "symbol",
      "outputs": [
        {
          "internalType": "string",
          "name": "",
          "type": "string"
        }
      ],
      "stateMutability": "view",
      "type": "function"
    },
    {
      "inputs": [],
      "name": "totalSupply",
      "outputs": [
        {
          "internalType": "uint256",
          "name": "",
          "type": "uint256"
        }
      ],
      "stateMutability": "view",
      "type": "function"
    },
    {
      "inputs": [
        {
          "internalType": "address",
          "name": "to",
          "type": "address"
        },
        {
          "internalType": "uint256",
          "name": "value",
          "type": "uint256"
        }
      ],
      "name": "transfer",
      "outputs": [
        {
          "internalType": "bool",
          "name": "",
          "type": "bool"
        }
      ],
      "stateMutability": "nonpayable",
      "type": "function"
    },
    {
      "inputs": [
        {
          "internalType": "address",
          "name": "from",
          "type": "address"
        },
        {
          "internalType": "address",
          "name": "to",
          "type": "address"
        },
        {
          "internalType": "uint256",
          "name": "value",
          "type": "uint256"
        }
      ],
      "name": "transferFrom",
      "outputs": [
        {
          "internalType": "bool",
          "name": "",
          "type": "bool"
        }
      ],
      "stateMutability": "nonpayable",
      "type": "function"
    }
  ],
  "bytecode": "0x608060405234801561001057600080fd5b506040518060400160405280600d81526020017f417374616e6149545f32333234000000000000000000000000000000000000008152506040518060400160405280600381526020017f4d544b0000000000000000000000000000000000000000000000000000000000815250816003908161008c91906105e0565b50806004908161009c91906105e0565b5050506100d5336100b16100da60201b60201c565b600a6100bd9190610821565b6107d06100ca919061086c565b6100e360201b60201c565b61099f565b60006012905090565b600073ffffffffffffffffffffffffffffffffffffffff168273ffffffffffffffffffffffffffffffffffffffff16036101555760006040517fec442f0500000000000000000000000000000000000000000000000000000000815260040161014c91906108ef565b60405180910390fd5b6101676000838361016b60201b60201c565b5050565b600073ffffffffffffffffffffffffffffffffffffffff168373ffffffffffffffffffffffffffffffffffffffff16036101bd5780600260008282546101b1919061090a565b92505081905550610290565b60008060008573ffffffffffffffffffffffffffffffffffffffff1673ffffffffffffffffffffffffffffffffffffffff16815260200190815260200160002054905081811015610249578381836040517fe450d38c0000000000000000000000000000000000000000000000000000000081526004016102409392919061094d565b60405180910390fd5b8181036000808673ffffffffffffffffffffffffffffffffffffffff1673ffffffffffffffffffffffffffffffffffffffff16815260200190815260200160002081905550505b600073ffffffffffffffffffffffffffffffffffffffff168273ffffffffffffffffffffffffffffffffffffffff16036102d95780600260008282540392505081905550610326565b806000808473ffffffffffffffffffffffffffffffffffffffff1673ffffffffffffffffffffffffffffffffffffffff168152602001908152602001600020600082825401925050819055505b8173ffffffffffffffffffffffffffffffffffffffff168373ffffffffffffffffffffffffffffffffffffffff167fddf252ad1be2c89b69c2b068fc378daa952ba7f163c4a11628f55a4df523b3ef836040516103839190610984565b60405180910390a3505050565b600081519050919050565b7f4e487b7100000000000000000000000000000000000000000000000000000000600052604160045260246000fd5b7f4e487b7100000000000000000000000000000000000000000000000000000000600052602260045260246000fd5b6000600282049050600182168061041157607f821691505b602082108103610424576104236103ca565b5b50919050565b60008190508160005260206000209050919050565b60006020601f8301049050919050565b600082821b905092915050565b60006008830261048c7fffffffffffffffffffffffffffffffffffffffffffffffffffffffffffffffff8261044f565b610496868361044f565b95508019841693508086168417925050509392505050565b6000819050919050565b6000819050919050565b60006104dd6104d86104d3846104ae565b6104b8565b6104ae565b9050919050565b6000819050919050565b6104f7836104c2565b61050b610503826104e4565b84845461045c565b825550505050565b600090565b610520610513565b61052b8184846104ee565b505050565b5b8181101561054f57610544600082610518565b600181019050610531565b5050565b601f821115610594576105658161042a565b61056e8461043f565b8101602085101561057d578190505b6105916105898561043f565b830182610530565b50505b505050565b600082821c905092915050565b60006105b760001984600802610599565b1980831691505092915050565b60006105d083836105a6565b9150826002028217905092915050565b6105e982610390565b67ffffffffffffffff8111156106025761060161039b565b5b61060c82546103f9565b610617828285610553565b600060209050601f83116001811461064a5760008415610638578287015190505b61064285826105c4565b8655506106aa565b601f1984166106588661042a565b60005b828110156106805784890151825560018201915060208501945060208101905061065b565b8683101561069d5784890151610699601f8916826105a6565b8355505b6001600288020188555050505b505050505050565b7f4e487b7100000000000000000000000000000000000000000000000000000000600052601160045260246000fd5b60008160011c9050919050565b6000808291508390505b600185111561073857808604811115610714576107136106b2565b5b60018516156107235780820291505b8081029050610731856106e1565b94506106f8565b94509492505050565b600082610751576001905061080d565b8161075f576000905061080d565b8160018114610775576002811461077f576107ae565b600191505061080d565b60ff841115610791576107906106b2565b5b8360020a9150848211156107a8576107a76106b2565b5b5061080d565b5060208310610133831016604e8410600b84101617156107e35782820a9050838111156107de576107dd6106b2565b5b61080d565b6107f084848460016106ee565b92509050818404811115610807576108066106b2565b5b81810290505b9392505050565b600060ff82169050919050565b600061082c826104ae565b915061083783610814565b92506108647fffffffffffffffffffffffffffffffffffffffffffffffffffffffffffffffff8484610741565b905092915050565b6000610877826104ae565b9150610882836104ae565b9250828202610890816104ae565b915082820484148315176108a7576108a66106b2565b5b5092915050565b600073ffffffffffffffffffffffffffffffffffffffff82169050919050565b60006108d9826108ae565b9050919050565b6108e9816108ce565b82525050565b600060208201905061090460008301846108e0565b92915050565b6000610915826104ae565b9150610920836104ae565b9250828201905080821115610938576109376106b2565b5b92915050565b610947816104ae565b82525050565b600060608201905061096260008301866108e0565b61096f602083018561093e565b61097c604083018461093e565b949350505050565b6000602082019050610999600083018461093e565b92915050565b6112c4806109ae6000396000f3fe608060405234801561001057600080fd5b50600436106100b45760003560e01c806395d89b411161007157806395d89b41146101a3578063a9059cbb146101c1578063b0a9357e146101f1578063bead3f5014610221578063d45e3f4a1461023f578063dd62ed3e1461025d576100b4565b806306fdde03146100b9578063095ea7b3146100d757806318160ddd1461010757806323b872dd14610125578063313ce5671461015557806370a0823114610173575b600080fd5b6100c161028d565b6040516100ce9190610d03565b60405180910390f35b6100f160048036038101906100ec9190610dbe565b61031f565b6040516100fe9190610e19565b60405180910390f35b61010f610342565b60405161011c9190610e43565b60405180910390f35b61013f600480360381019061013a9190610e5e565b61034c565b60405161014c9190610e19565b60405180910390f35b61015d61037b565b60405161016a9190610ecd565b60405180910390f35b61018d60048036038101906101889190610ee8565b610384565b60405161019a9190610e43565b60405180910390f35b6101ab6103cc565b6040516101b89190610d03565b60405180910390f35b6101db60048036038101906101d69190610dbe565b61045e565b6040516101e89190610e19565b60405180910390f35b61020b60048036038101906102069190610ee8565b610481565b6040516102189190610f24565b60405180910390f35b61022961048b565b6040516102369190610f24565b60405180910390f35b610247610493565b6040516102549190610d03565b60405180910390f35b61027760048036038101906102729190610f3f565b6104a3565b6040516102849190610e43565b60405180910390f35b60606003805461029c90610fae565b80601f01602080910402602001604051908101604052809291908181526020018280546102c890610fae565b80156103155780601f106102ea57610100808354040283529160200191610315565b820191906000526020600020905b8154815290600101906020018083116102f857829003601f168201915b5050505050905090565b60008061032a61052a565b9050610337818585610532565b600191505092915050565b6000600254905090565b60008061035761052a565b9050610364858285610544565b61036f8585856105d9565b60019150509392505050565b60006012905090565b60008060008373ffffffffffffffffffffffffffffffffffffffff1673ffffffffffffffffffffffffffffffffffffffff168152602001908152602001600020549050919050565b6060600480546103db90610fae565b80601f016020809104026020016040519081016040528092919081815260200182805461040790610fae565b80156104545780601f1061042957610100808354040283529160200191610454565b820191906000526020600020905b81548152906001019060200180831161043757829003601f168201915b5050505050905090565b60008061046961052a565b90506104768185856105d9565b600191505092915050565b6000819050919050565b600033905090565b606061049e426106cd565b905090565b6000600160008473ffffffffffffffffffffffffffffffffffffffff1673ffffffffffffffffffffffffffffffffffffffff16815260200190815260200160002060008373ffffffffffffffffffffffffffffffffffffffff1673ffffffffffffffffffffffffffffffffffffffff16815260200190815260200160002054905092915050565b600033905090565b61053f8383836001610717565b505050565b600061055084846104a3565b90507fffffffffffffffffffffffffffffffffffffffffffffffffffffffffffffffff8110156105d357818110156105c3578281836040517ffb8f41b20000000000000000000000000000000000000000000000000000000081526004016105ba93929190610fdf565b60405180910390fd5b6105d284848484036000610717565b5b50505050565b600073ffffffffffffffffffffffffffffffffffffffff168373ffffffffffffffffffffffffffffffffffffffff160361064b5760006040517f96c6fd1e0000000000000000000000000000000000000000000000000000000081526004016106429190610f24565b60405180910390fd5b600073ffffffffffffffffffffffffffffffffffffffff168273ffffffffffffffffffffffffffffffffffffffff16036106bd5760006040517fec442f050000000000000000000000000000000000000000000000000000000081526004016106b49190610f24565b60405180910390fd5b6106c88383836108ee565b505050565b606060006201518083816106e4576106e3611016565b5b0490506106f081610b13565b60405160200161070091906110cd565b604051602081830303815290604052915050919050565b600073ffffffffffffffffffffffffffffffffffffffff168473ffffffffffffffffffffffffffffffffffffffff16036107895760006040517fe602df050000000000000000000000000000000000000000000000000000000081526004016107809190610f24565b60405180910390fd5b600073ffffffffffffffffffffffffffffffffffffffff168373ffffffffffffffffffffffffffffffffffffffff16036107fb5760006040517f94280d620000000000000000000000000000000000000000000000000000000081526004016107f29190610f24565b60405180910390fd5b81600160008673ffffffffffffffffffffffffffffffffffffffff1673ffffffffffffffffffffffffffffffffffffffff16815260200190815260200160002060008573ffffffffffffffffffffffffffffffffffffffff1673ffffffffffffffffffffffffffffffffffffffff1681526020019081526020016000208190555080156108e8578273ffffffffffffffffffffffffffffffffffffffff168473ffffffffffffffffffffffffffffffffffffffff167f8c5be1e5ebec7d5bd14f71427d1e84f3dd0314c0f7b2291e5b200ac8c7c3b925846040516108df9190610e43565b60405180910390a35b50505050565b600073ffffffffffffffffffffffffffffffffffffffff168373ffffffffffffffffffffffffffffffffffffffff1603610940578060026000828254610934919061111e565b92505081905550610a13565b60008060008573ffffffffffffffffffffffffffffffffffffffff1673ffffffffffffffffffffffffffffffffffffffff168152602001908152602001600020549050818110156109cc578381836040517fe450d38c0000000000000000000000000000000000000000000000000000000081526004016109c393929190610fdf565b60405180910390fd5b8181036000808673ffffffffffffffffffffffffffffffffffffffff1673ffffffffffffffffffffffffffffffffffffffff16815260200190815260200160002081905550505b600073ffffffffffffffffffffffffffffffffffffffff168273ffffffffffffffffffffffffffffffffffffffff1603610a5c5780600260008282540392505081905550610aa9565b806000808473ffffffffffffffffffffffffffffffffffffffff1673ffffffffffffffffffffffffffffffffffffffff168152602001908152602001600020600082825401925050819055505b8173ffffffffffffffffffffffffffffffffffffffff168373ffffffffffffffffffffffffffffffffffffffff167fddf252ad1be2c89b69c2b068fc378daa952ba7f163c4a11628f55a4df523b3ef83604051610b069190610e43565b60405180910390a3505050565b606060008203610b5a576040518060400160405280600181526020017f30000000000000000000000000000000000000000000000000000000000000008152509050610c6e565b600082905060005b60008214610b8c578080610b7590611152565b915050600a82610b85919061119a565b9150610b62565b60008167ffffffffffffffff811115610ba857610ba76111cb565b5b6040519080825280601f01601f191660200182016040528015610bda5781602001600182028036833780820191505090505b5090505b60008514610c6757600182610bf391906111fa565b9150600a85610c02919061122e565b6030610c0e919061111e565b60f81b818381518110610c2457610c2361125f565b5b60200101907effffffffffffffffffffffffffffffffffffffffffffffffffffffffffffff1916908160001a905350600a85610c60919061119a565b9450610bde565b8093505050505b919050565b600081519050919050565b600082825260208201905092915050565b60005b83811015610cad578082015181840152602081019050610c92565b60008484015250505050565b6000601f19601f8301169050919050565b6000610cd582610c73565b610cdf8185610c7e565b9350610cef818560208601610c8f565b610cf881610cb9565b840191505092915050565b60006020820190508181036000830152610d1d8184610cca565b905092915050565b600080fd5b600073ffffffffffffffffffffffffffffffffffffffff82169050919050565b6000610d5582610d2a565b9050919050565b610d6581610d4a565b8114610d7057600080fd5b50565b600081359050610d8281610d5c565b92915050565b6000819050919050565b610d9b81610d88565b8114610da657600080fd5b50565b600081359050610db881610d92565b92915050565b60008060408385031215610dd557610dd4610d25565b5b6000610de385828601610d73565b9250506020610df485828601610da9565b9150509250929050565b60008115159050919050565b610e1381610dfe565b82525050565b6000602082019050610e2e6000830184610e0a565b92915050565b610e3d81610d88565b82525050565b6000602082019050610e586000830184610e34565b92915050565b600080600060608486031215610e7757610e76610d25565b5b6000610e8586828701610d73565b9350506020610e9686828701610d73565b9250506040610ea786828701610da9565b9150509250925092565b600060ff82169050919050565b610ec781610eb1565b82525050565b6000602082019050610ee26000830184610ebe565b92915050565b600060208284031215610efe57610efd610d25565b5b6000610f0c84828501610d73565b91505092915050565b610f1e81610d4a565b82525050565b6000602082019050610f396000830184610f15565b92915050565b60008060408385031215610f5657610f55610d25565b5b6000610f6485828601610d73565b9250506020610f7585828601610d73565b9150509250929050565b7f4e487b7100000000000000000000000000000000000000000000000000000000600052602260045260246000fd5b60006002820490506001821680610fc657607f821691505b602082108103610fd957610fd8610f7f565b5b50919050565b6000606082019050610ff46000830186610f15565b6110016020830185610e34565b61100e6040830184610e34565b949350505050565b7f4e487b7100000000000000000000000000000000000000000000000000000000600052601260045260246000fd5b600081905092915050565b600061105b82610c73565b6110658185611045565b9350611075818560208601610c8f565b80840191505092915050565b7f20646179732073696e636520556e69782065706f636800000000000000000000600082015250565b60006110b7601683611045565b91506110c282611081565b601682019050919050565b60006110d98284611050565b91506110e4826110aa565b915081905092915050565b7f4e487b7100000000000000000000000000000000000000000000000000000000600052601160045260246000fd5b600061112982610d88565b915061113483610d88565b925082820190508082111561114c5761114b6110ef565b5b92915050565b600061115d82610d88565b91507fffffffffffffffffffffffffffffffffffffffffffffffffffffffffffffffff820361118f5761118e6110ef565b5b600182019050919050565b60006111a582610d88565b91506111b083610d88565b9250826111c0576111bf611016565b5b828204905092915050565b7f4e487b7100000000000000000000000000000000000000000000000000000000600052604160045260246000fd5b600061120582610d88565b915061121083610d88565b9250828203905081811115611228576112276110ef565b5b92915050565b600061123982610d88565b915061124483610d88565b92508261125457611253611016565b5b828206905092915050565b7f4e487b7100000000000000000000000000000000000000000000000000000000600052603260045260246000fdfea26469706673582212203662677ee451223ad5773e5486ed8da198974fdcf8142d6bb7d04d947f20ff7264736f6c634300081c0033",
  "linkReferences": {},
  "deployedLinkReferences": {}
}